{
  "transactions": [
    {
      "hash": "0x1f9cae6571a5e5e284e89cee1cc9091e65145294219b05adc18bc91f95eef686",
      "transactionType": "CALL",
      "contractName": null,
      "contractAddress": "0xfaba7caadc64902106b2e18640576389e0d3d365",
      "function": "mintTo(address)",
      "arguments": [
        "0xCbDeeEB5763F1e9185f0785B07B9F32886D95937"
      ],
      "transaction": {
        "from": "0xeea6d9c0c8d2c69c03f07558de2478ee13ff3efc",
        "to": "0xfaba7caadc64902106b2e18640576389e0d3d365",
        "gas": "0x12684",
        "value": "0x0",
        "input": "0x755edd17000000000000000000000000cbdeeeb5763f1e9185f0785b07b9f32886d95937",
        "nonce": "0x3",
        "chainId": "0x14a34"
      },
      "additionalContracts": [],
      "isFixedGasLimit": false
    }
  ],
  "receipts": [
    {
      "status": "0x1",
      "cumulativeGasUsed": "0x346db2",
      "logs": [
        {
          "address": "0xfaba7caadc64902106b2e18640576389e0d3d365",
          "topics": [
            "0xddf252ad1be2c89b69c2b068fc378daa952ba7f163c4a11628f55a4df523b3ef",
            "0x0000000000000000000000000000000000000000000000000000000000000000",
            "0x000000000000000000000000cbdeeeb5763f1e9185f0785b07b9f32886d95937"
          ],
          "data": "0x0000000000000000000000000000000000000000000000000000000005f5e100",
          "blockHash": "0x896548cccf35e6a5ada6e1bd2f3a879e796f6c1ecc709b061e84e81dc4055b71",
          "blockNumber": "0x212dd51",
          "blockTimestamp": "0x69391982",
          "transactionHash": "0x1f9cae6571a5e5e284e89cee1cc9091e65145294219b05adc18bc91f95eef686",
          "transactionIndex": "0x14",
          "logIndex": "0x5d",
          "removed": false
        }
      ],
      "logsBloom": "0x00000000000000000000000000000000000000000000000000000000000000000000000000000000000000000000000000000000000000000000020000000000000000000000000000000008000000000000000000000000000000000000000000000000020000000000000000000800000000000000000000000010000008000000000400000000000000004000000000000000000000000000000000000000000000000000000000000000000000000000000000020000000000000000000000000002000000000000000000000000000000000000000000000000000020000000000000000000000000000000000000000000000000000000000000000100",
      "type": "0x2",
      "transactionHash": "0x1f9cae6571a5e5e284e89cee1cc9091e65145294219b05adc18bc91f95eef686",
      "transactionIndex": "0x14",
      "blockHash": "0x896548cccf35e6a5ada6e1bd2f3a879e796f6c1ecc709b061e84e81dc4055b71",
      "blockNumber": "0x212dd51",
      "gasUsed": "0xc961",
      "effectiveGasPrice": "0x124f80",
      "blobGasUsed": "0x79e0",
      "from": "0xeea6d9c0c8d2c69c03f07558de2478ee13ff3efc",
      "to": "0xfaba7caadc64902106b2e18640576389e0d3d365",
      "contractAddress": null,
      "daFootprintGasScalar": "0x138",
      "l1BaseFeeScalar": "0x44d",
      "l1BlobBaseFee": "0x1",
      "l1BlobBaseFeeScalar": "0xa118b",
      "l1Fee": "0x4e",
      "l1GasPrice": "0x7",
      "l1GasUsed": "0x640"
    }
  ],
  "libraries": [],
  "pending": [],
  "returns": {},
  "timestamp": 1765349761678,
  "chain": 84532,
  "commit": "8af6c99"
}