{
  "transactions": [
    {
      "hash": "0x2e8f0b750fadcf6bdcdc6f143541c42f2fa69775ec25f91700ab214308018721",
      "transactionType": "CALL",
      "contractName": null,
      "contractAddress": "0xfaba7caadc64902106b2e18640576389e0d3d365",
      "function": "mintTo(address)",
      "arguments": [
        "0x5b65312CA4458d1E7B0055885e94ABeD30Dabe73"
      ],
      "transaction": {
        "from": "0xeea6d9c0c8d2c69c03f07558de2478ee13ff3efc",
        "to": "0xfaba7caadc64902106b2e18640576389e0d3d365",
        "gas": "0x11616",
        "value": "0x0",
        "input": "0x755edd170000000000000000000000005b65312ca4458d1e7b0055885e94abed30dabe73",
        "nonce": "0x4",
        "chainId": "0x14a34"
      },
      "additionalContracts": [],
      "isFixedGasLimit": false
    }
  ],
  "receipts": [
    {
      "status": "0x1",
      "cumulativeGasUsed": "0x2429e6",
      "logs": [
        {
          "address": "0xfaba7caadc64902106b2e18640576389e0d3d365",
          "topics": [
            "0xddf252ad1be2c89b69c2b068fc378daa952ba7f163c4a11628f55a4df523b3ef",
            "0x0000000000000000000000000000000000000000000000000000000000000000",
            "0x0000000000000000000000005b65312ca4458d1e7b0055885e94abed30dabe73"
          ],
          "data": "0x0000000000000000000000000000000000000000000000000000000005f5e100",
          "blockHash": "0x785aa71b8fcbe39b884f8bc1c47a325982e7cd2897c11a50a6f11338b061436c",
          "blockNumber": "0x212f744",
          "blockTimestamp": "0x69394d68",
          "transactionHash": "0x2e8f0b750fadcf6bdcdc6f143541c42f2fa69775ec25f91700ab214308018721",
          "transactionIndex": "0x6",
          "logIndex": "0x27",
          "removed": false
        }
      ],
      "logsBloom": "0x00000000000000000000000000000000000000000000000000000000000000000000000000000000000000000000000000000000000000000000020000000000000000000000000000000008000000000000000000000000000000000000000000000000020000000000000000000800000200000000000000000010000000000000000000000000000000004000000000000000000000000000000000000000000000000000008000000000000000000000000200000000000000000000000000000002000000000000000000000000000000000000000000000000000020000000000000000000000000000000000000000000000000000000000000000100",
      "type": "0x2",
      "transactionHash": "0x2e8f0b750fadcf6bdcdc6f143541c42f2fa69775ec25f91700ab214308018721",
      "transactionIndex": "0x6",
      "blockHash": "0x785aa71b8fcbe39b884f8bc1c47a325982e7cd2897c11a50a6f11338b061436c",
      "blockNumber": "0x212f744",
      "gasUsed": "0xc955",
      "effectiveGasPrice": "0x124f80",
      "blobGasUsed": "0x79e0",
      "from": "0xeea6d9c0c8d2c69c03f07558de2478ee13ff3efc",
      "to": "0xfaba7caadc64902106b2e18640576389e0d3d365",
      "contractAddress": null,
      "daFootprintGasScalar": "0x138",
      "l1BaseFeeScalar": "0x44d",
      "l1BlobBaseFee": "0x1",
      "l1BlobBaseFeeScalar": "0xa118b",
      "l1Fee": "0x6c",
      "l1GasPrice": "0x7",
      "l1GasUsed": "0x640"
    }
  ],
  "libraries": [],
  "pending": [],
  "returns": {},
  "timestamp": 1765363047575,
  "chain": 84532,
  "commit": "2f66535"
}